{
  "abi": [
    {
      "inputs": [],
      "stateMutability": "nonpayable",
      "type": "constructor"
    },
    {
      "anonymous": false,
      "inputs": [
        {
          "indexed": false,
          "internalType": "address",
          "name": "user",
          "type": "address"
        },
        {
          "indexed": false,
          "internalType": "address",
          "name": "token",
          "type": "address"
        },
        {
          "indexed": false,
          "internalType": "uint256",
          "name": "amount",
          "type": "uint256"
        },
        {
          "indexed": false,
          "internalType": "uint256",
          "name": "value",
          "type": "uint256"
        },
        {
          "indexed": false,
          "internalType": "uint256",
          "name": "duration",
          "type": "uint256"
        }
      ],
      "name": "Bonded",
      "type": "event"
    },
    {
      "anonymous": false,
      "inputs": [
        {
          "indexed": false,
          "internalType": "address",
          "name": "user",
          "type": "address"
        },
        {
          "indexed": false,
          "internalType": "uint256",
          "name": "amount",
          "type": "uint256"
        }
      ],
      "name": "Redemption",
      "type": "event"
    },
    {
      "anonymous": false,
      "inputs": [
        {
          "indexed": true,
          "internalType": "uint256",
          "name": "id",
          "type": "uint256"
        },
        {
          "indexed": false,
          "internalType": "uint64",
          "name": "oldControlVariable",
          "type": "uint64"
        },
        {
          "indexed": false,
          "internalType": "uint64",
          "name": "newControlVariable",
          "type": "uint64"
        }
      ],
      "name": "Tuned",
      "type": "event"
    },
    {
      "inputs": [
        {
          "internalType": "address",
          "name": "",
          "type": "address"
        },
        {
          "internalType": "uint256",
          "name": "",
          "type": "uint256"
        }
      ],
      "name": "bonds",
      "outputs": [
        {
          "internalType": "uint256",
          "name": "created",
          "type": "uint256"
        },
        {
          "internalType": "uint256",
          "name": "expiry",
          "type": "uint256"
        },
        {
          "internalType": "uint256",
          "name": "value",
          "type": "uint256"
        }
      ],
      "stateMutability": "view",
      "type": "function"
    },
    {
      "inputs": [
        {
          "internalType": "address",
          "name": "_lp_address",
          "type": "address"
        },
        {
          "internalType": "uint256",
          "name": "_lp_amount",
          "type": "uint256"
        },
        {
          "internalType": "uint256",
          "name": "_duration",
          "type": "uint256"
        }
      ],
      "name": "create_bond",
      "outputs": [
        {
          "internalType": "uint256",
          "name": "index",
          "type": "uint256"
        }
      ],
      "stateMutability": "nonpayable",
      "type": "function"
    },
    {
      "inputs": [
        {
          "internalType": "uint256",
          "name": "_bond_index",
          "type": "uint256"
        }
      ],
      "name": "withdraw",
      "outputs": [
        {
          "internalType": "uint256",
          "name": "withdrawn_",
          "type": "uint256"
        }
      ],
      "stateMutability": "nonpayable",
      "type": "function"
    }
  ],
  "bytecode": {
    "object": "0x608060405234801561001057600080fd5b506102da806100206000396000f3fe608060405234801561001057600080fd5b50600436106100415760003560e01c80632e1a7d4d14610046578063327d83b81461006c57806333bc26401461009a575b600080fd5b6100596100543660046101fc565b61010a565b6040519081526020015b60405180910390f35b61007f61007a366004610231565b6101ba565b60408051938452602084019290925290820152606001610063565b6100596100a836600461025b565b336000818152602081815260408083208151606081018352428152808401878152928101888152825460018181018555848852868820935160039092029093019081559351918401919091555160029092019190915592825252549392505050565b33600090815260208190526040812080548291908490811061012e5761012e61028e565b6000918252602091829020604080516060810182526003909302909101805483526001810154938301849052600201549082015291504210156101b05760405162461bcd60e51b8152602060048201526016602482015275165bdd4818d85b89dd081dda5d1a191c985dc81e595d60521b604482015260640160405180910390fd5b6040015192915050565b600060205281600052604060002081815481106101d657600080fd5b600091825260209091206003909102018054600182015460029092015490935090915083565b60006020828403121561020e57600080fd5b5035919050565b80356001600160a01b038116811461022c57600080fd5b919050565b6000806040838503121561024457600080fd5b61024d83610215565b946020939093013593505050565b60008060006060848603121561027057600080fd5b61027984610215565b95602085013595506040909401359392505050565b634e487b7160e01b600052603260045260246000fdfea26469706673582212207c03e2e6bef56b961c7d2a0f72727379a05622e211b2e0f3a174fafb88a132f564736f6c63430008110033",
    "linkReferences": {}
  },
  "methodIdentifiers": {
    "bonds(address,uint256)": "327d83b8",
    "create_bond(address,uint256,uint256)": "33bc2640",
    "withdraw(uint256)": "2e1a7d4d"
  },
  "id": 10
}