{
  "abi": [
    {
      "inputs": [],
      "stateMutability": "nonpayable",
      "type": "constructor"
    },
    {
      "anonymous": false,
      "inputs": [
        {
          "indexed": false,
          "internalType": "address",
          "name": "user",
          "type": "address"
        },
        {
          "indexed": false,
          "internalType": "address",
          "name": "token",
          "type": "address"
        },
        {
          "indexed": false,
          "internalType": "uint256",
          "name": "amount",
          "type": "uint256"
        },
        {
          "indexed": false,
          "internalType": "uint256",
          "name": "value",
          "type": "uint256"
        },
        {
          "indexed": false,
          "internalType": "uint256",
          "name": "duration",
          "type": "uint256"
        }
      ],
      "name": "Bonded",
      "type": "event"
    },
    {
      "anonymous": false,
      "inputs": [
        {
          "indexed": false,
          "internalType": "address",
          "name": "user",
          "type": "address"
        },
        {
          "indexed": false,
          "internalType": "uint256",
          "name": "amount",
          "type": "uint256"
        }
      ],
      "name": "Redemption",
      "type": "event"
    },
    {
      "anonymous": false,
      "inputs": [
        {
          "indexed": true,
          "internalType": "uint256",
          "name": "id",
          "type": "uint256"
        },
        {
          "indexed": false,
          "internalType": "uint64",
          "name": "oldControlVariable",
          "type": "uint64"
        },
        {
          "indexed": false,
          "internalType": "uint64",
          "name": "newControlVariable",
          "type": "uint64"
        }
      ],
      "name": "Tuned",
      "type": "event"
    },
    {
      "inputs": [
        {
          "internalType": "address",
          "name": "",
          "type": "address"
        },
        {
          "internalType": "uint256",
          "name": "",
          "type": "uint256"
        }
      ],
      "name": "bonds",
      "outputs": [
        {
          "internalType": "uint256",
          "name": "created",
          "type": "uint256"
        },
        {
          "internalType": "uint256",
          "name": "expiry",
          "type": "uint256"
        },
        {
          "internalType": "uint256",
          "name": "value",
          "type": "uint256"
        }
      ],
      "stateMutability": "view",
      "type": "function"
    },
    {
      "inputs": [
        {
          "internalType": "address",
          "name": "_lp_address",
          "type": "address"
        },
        {
          "internalType": "uint256",
          "name": "_lp_amount",
          "type": "uint256"
        },
        {
          "internalType": "uint256",
          "name": "_duration",
          "type": "uint256"
        }
      ],
      "name": "create_bond",
      "outputs": [
        {
          "internalType": "uint256",
          "name": "index",
          "type": "uint256"
        }
      ],
      "stateMutability": "nonpayable",
      "type": "function"
    },
    {
      "inputs": [],
      "name": "number",
      "outputs": [
        {
          "internalType": "uint256",
          "name": "",
          "type": "uint256"
        }
      ],
      "stateMutability": "view",
      "type": "function"
    },
    {
      "inputs": [
        {
          "internalType": "uint256",
          "name": "newNumber",
          "type": "uint256"
        }
      ],
      "name": "setNumber",
      "outputs": [],
      "stateMutability": "nonpayable",
      "type": "function"
    },
    {
      "inputs": [
        {
          "internalType": "address",
          "name": "_user",
          "type": "address"
        },
        {
          "internalType": "uint256",
          "name": "_bond_index",
          "type": "uint256"
        }
      ],
      "name": "withdraw",
      "outputs": [],
      "stateMutability": "nonpayable",
      "type": "function"
    }
  ],
  "bytecode": {
    "object": "0x608060405234801561001057600080fd5b506102b6806100206000396000f3fe608060405234801561001057600080fd5b50600436106100575760003560e01c8063327d83b81461005c57806333bc26401461008f5780633fb5c1cb146100b45780638381f58a146100c9578063f3fef3a3146100d2575b600080fd5b61006f61006a3660046101f4565b6100e5565b604080519384526020840192909252908201526060015b60405180910390f35b6100a661009d36600461021e565b60019392505050565b604051908152602001610086565b6100c76100c2366004610251565b600055565b005b6100a660005481565b6100c76100e03660046101f4565b610127565b6001602052816000526040600020818154811061010157600080fd5b600091825260209091206003909102018054600182015460029092015490935090915083565b6001600160a01b03821660009081526001602052604081208054839081106101515761015161026a565b6000918252602091829020604080516060810182526003909302909101805483526001810154938301849052600201549082015291504210156101d35760405162461bcd60e51b8152602060048201526016602482015275165bdd4818d85b89dd081dda5d1a191c985dc81e595d60521b604482015260640160405180910390fd5b505050565b80356001600160a01b03811681146101ef57600080fd5b919050565b6000806040838503121561020757600080fd5b610210836101d8565b946020939093013593505050565b60008060006060848603121561023357600080fd5b61023c846101d8565b95602085013595506040909401359392505050565b60006020828403121561026357600080fd5b5035919050565b634e487b7160e01b600052603260045260246000fdfea2646970667358221220a4cf2ca69abfa41a1940d575c84a604eb75777fae9f07739b7fd9c58d3a5596764736f6c63430008110033",
    "linkReferences": {}
  },
  "methodIdentifiers": {
    "bonds(address,uint256)": "327d83b8",
    "create_bond(address,uint256,uint256)": "33bc2640",
    "number()": "8381f58a",
    "setNumber(uint256)": "3fb5c1cb",
    "withdraw(address,uint256)": "f3fef3a3"
  },
  "id": 7
}